{
  "abi": [
    {
      "type": "constructor",
      "inputs": [],
      "stateMutability": "nonpayable"
    },
    {
      "type": "function",
      "name": "completeTask",
      "inputs": [
        {
          "name": "_taskId",
          "type": "uint256",
          "internalType": "uint256"
        }
      ],
      "outputs": [],
      "stateMutability": "nonpayable"
    },
    {
      "type": "function",
      "name": "createTask",
      "inputs": [
        {
          "name": "_title",
          "type": "string",
          "internalType": "string"
        },
        {
          "name": "_description",
          "type": "string",
          "internalType": "string"
        }
      ],
      "outputs": [
        {
          "name": "",
          "type": "uint256",
          "internalType": "uint256"
        }
      ],
      "stateMutability": "nonpayable"
    },
    {
      "type": "function",
      "name": "deleteTask",
      "inputs": [
        {
          "name": "_taskId",
          "type": "uint256",
          "internalType": "uint256"
        }
      ],
      "outputs": [],
      "stateMutability": "nonpayable"
    },
    {
      "type": "function",
      "name": "getAllTasks",
      "inputs": [],
      "outputs": [
        {
          "name": "",
          "type": "tuple[]",
          "internalType": "struct TaskManager.Task[]",
          "components": [
            {
              "name": "id",
              "type": "uint256",
              "internalType": "uint256"
            },
            {
              "name": "title",
              "type": "string",
              "internalType": "string"
            },
            {
              "name": "description",
              "type": "string",
              "internalType": "string"
            },
            {
              "name": "isCompleted",
              "type": "bool",
              "internalType": "bool"
            },
            {
              "name": "owner",
              "type": "address",
              "internalType": "address"
            }
          ]
        }
      ],
      "stateMutability": "view"
    },
    {
      "type": "function",
      "name": "owner",
      "inputs": [],
      "outputs": [
        {
          "name": "",
          "type": "address",
          "internalType": "address"
        }
      ],
      "stateMutability": "view"
    },
    {
      "type": "function",
      "name": "renounceOwnership",
      "inputs": [],
      "outputs": [],
      "stateMutability": "nonpayable"
    },
    {
      "type": "function",
      "name": "transferOwnership",
      "inputs": [
        {
          "name": "newOwner",
          "type": "address",
          "internalType": "address"
        }
      ],
      "outputs": [],
      "stateMutability": "nonpayable"
    },
    {
      "type": "function",
      "name": "updateTask",
      "inputs": [
        {
          "name": "_taskId",
          "type": "uint256",
          "internalType": "uint256"
        },
        {
          "name": "_title",
          "type": "string",
          "internalType": "string"
        },
        {
          "name": "_description",
          "type": "string",
          "internalType": "string"
        }
      ],
      "outputs": [],
      "stateMutability": "nonpayable"
    },
    {
      "type": "event",
      "name": "OwnershipTransferred",
      "inputs": [
        {
          "name": "previousOwner",
          "type": "address",
          "indexed": true,
          "internalType": "address"
        },
        {
          "name": "newOwner",
          "type": "address",
          "indexed": true,
          "internalType": "address"
        }
      ],
      "anonymous": false
    },
    {
      "type": "event",
      "name": "TaskCompleted",
      "inputs": [
        {
          "name": "taskId",
          "type": "uint256",
          "indexed": true,
          "internalType": "uint256"
        }
      ],
      "anonymous": false
    },
    {
      "type": "event",
      "name": "TaskCreated",
      "inputs": [
        {
          "name": "taskId",
          "type": "uint256",
          "indexed": true,
          "internalType": "uint256"
        },
        {
          "name": "title",
          "type": "string",
          "indexed": false,
          "internalType": "string"
        },
        {
          "name": "description",
          "type": "string",
          "indexed": false,
          "internalType": "string"
        }
      ],
      "anonymous": false
    },
    {
      "type": "event",
      "name": "TaskDeleted",
      "inputs": [
        {
          "name": "taskId",
          "type": "uint256",
          "indexed": true,
          "internalType": "uint256"
        }
      ],
      "anonymous": false
    },
    {
      "type": "event",
      "name": "TaskUpdated",
      "inputs": [
        {
          "name": "taskId",
          "type": "uint256",
          "indexed": true,
          "internalType": "uint256"
        },
        {
          "name": "title",
          "type": "string",
          "indexed": false,
          "internalType": "string"
        },
        {
          "name": "description",
          "type": "string",
          "indexed": false,
          "internalType": "string"
        }
      ],
      "anonymous": false
    },
    {
      "type": "error",
      "name": "OwnableInvalidOwner",
      "inputs": [
        {
          "name": "owner",
          "type": "address",
          "internalType": "address"
        }
      ]
    },
    {
      "type": "error",
      "name": "OwnableUnauthorizedAccount",
      "inputs": [
        {
          "name": "account",
          "type": "address",
          "internalType": "address"
        }
      ]
    }
  ],
  "bytecode": {
    "object": "0x608060405234801561000f575f80fd5b50335f73ffffffffffffffffffffffffffffffffffffffff168173ffffffffffffffffffffffffffffffffffffffff1603610081575f6040517f1e4fbdf70000000000000000000000000000000000000000000000000000000081526004016100789190610196565b60405180910390fd5b6100908161009660201b60201c565b506101af565b5f805f9054906101000a900473ffffffffffffffffffffffffffffffffffffffff169050815f806101000a81548173ffffffffffffffffffffffffffffffffffffffff021916908373ffffffffffffffffffffffffffffffffffffffff1602179055508173ffffffffffffffffffffffffffffffffffffffff168173ffffffffffffffffffffffffffffffffffffffff167f8be0079c531659141344cd1fd0a4f28419497f9722a3daafe3b4186f6b6457e060405160405180910390a35050565b5f73ffffffffffffffffffffffffffffffffffffffff82169050919050565b5f61018082610157565b9050919050565b61019081610176565b82525050565b5f6020820190506101a95f830184610187565b92915050565b6119e7806101bc5f395ff3fe608060405234801561000f575f80fd5b5060043610610086575f3560e01c80638da5cb5b116100595780638da5cb5b146100fe578063c72ef41f1461011c578063e1e2955814610138578063f2fde38b1461015457610086565b8063292a45851461008a578063560f3192146100ba578063715018a6146100d6578063779900b4146100e0575b5f80fd5b6100a4600480360381019061009f9190610f86565b610170565b6040516100b19190611014565b60405180910390f35b6100d460048036038101906100cf9190611057565b610328565b005b6100de61056e565b005b6100e8610581565b6040516100f5919061127f565b60405180910390f35b6101066107f2565b60405161011391906112ae565b60405180910390f35b610136600480360381019061013191906112c7565b610819565b005b610152600480360381019061014d9190611057565b6109c0565b005b61016e60048036038101906101699190611379565b610b5e565b005b5f808351116101b4576040517f08c379a00000000000000000000000000000000000000000000000000000000081526004016101ab906113fe565b60405180910390fd5b5f60035490506040518060a001604052808281526020018581526020018481526020015f151581526020013373ffffffffffffffffffffffffffffffffffffffff1681525060015f8381526020019081526020015f205f820151815f015560208201518160010190816102279190611616565b50604082015181600201908161023d9190611616565b506060820151816003015f6101000a81548160ff02191690831515021790555060808201518160030160016101000a81548173ffffffffffffffffffffffffffffffffffffffff021916908373ffffffffffffffffffffffffffffffffffffffff160217905550905050600281908060018154018082558091505060019003905f5260205f20015f909190919091505560035f8154809291906102df90611712565b9190505550807f3aa7994277fd1283665573abffa8b1ef095947ad76908721a82ac157e8953d5a8585604051610316929190611791565b60405180910390a28091505092915050565b8061033281610be2565b610371576040517f08c379a000000000000000000000000000000000000000000000000000000000815260040161036890611810565b60405180910390fd5b3373ffffffffffffffffffffffffffffffffffffffff1660015f8381526020019081526020015f2060030160019054906101000a900473ffffffffffffffffffffffffffffffffffffffff1673ffffffffffffffffffffffffffffffffffffffff1614610413576040517f08c379a000000000000000000000000000000000000000000000000000000000815260040161040a9061189e565b60405180910390fd5b5f5b6002805490508110156104ca578260028281548110610437576104366118bc565b5b905f5260205f200154036104bd576002600160028054905061045991906118e9565b8154811061046a576104696118bc565b5b905f5260205f20015460028281548110610487576104866118bc565b5b905f5260205f20018190555060028054806104a5576104a461191c565b5b600190038181905f5260205f20015f905590556104ca565b8080600101915050610415565b50817fd078b251d950cc55c44340be1db732337ef4939a76e1367ee271ad2cb19c46af60405160405180910390a260015f8381526020019081526020015f205f8082015f9055600182015f61051f9190610d9d565b600282015f61052e9190610d9d565b600382015f6101000a81549060ff02191690556003820160016101000a81549073ffffffffffffffffffffffffffffffffffffffff021916905550505050565b610576610c4e565b61057f5f610cd5565b565b60605f60028054905067ffffffffffffffff8111156105a3576105a2610e62565b5b6040519080825280602002602001820160405280156105dc57816020015b6105c9610dda565b8152602001906001900390816105c15790505b5090505f5b6002805490508110156107ea5760015f60028381548110610605576106046118bc565b5b905f5260205f20015481526020019081526020015f206040518060a00160405290815f820154815260200160018201805461063f90611449565b80601f016020809104026020016040519081016040528092919081815260200182805461066b90611449565b80156106b65780601f1061068d576101008083540402835291602001916106b6565b820191905f5260205f20905b81548152906001019060200180831161069957829003601f168201915b505050505081526020016002820180546106cf90611449565b80601f01602080910402602001604051908101604052809291908181526020018280546106fb90611449565b80156107465780601f1061071d57610100808354040283529160200191610746565b820191905f5260205f20905b81548152906001019060200180831161072957829003601f168201915b50505050508152602001600382015f9054906101000a900460ff161515151581526020016003820160019054906101000a900473ffffffffffffffffffffffffffffffffffffffff1673ffffffffffffffffffffffffffffffffffffffff1673ffffffffffffffffffffffffffffffffffffffff16815250508282815181106107d2576107d16118bc565b5b602002602001018190525080806001019150506105e1565b508091505090565b5f805f9054906101000a900473ffffffffffffffffffffffffffffffffffffffff16905090565b8261082381610be2565b610862576040517f08c379a000000000000000000000000000000000000000000000000000000000815260040161085990611810565b60405180910390fd5b3373ffffffffffffffffffffffffffffffffffffffff1660015f8381526020019081526020015f2060030160019054906101000a900473ffffffffffffffffffffffffffffffffffffffff1673ffffffffffffffffffffffffffffffffffffffff1614610904576040517f08c379a00000000000000000000000000000000000000000000000000000000081526004016108fb9061189e565b60405180910390fd5b5f835111610947576040517f08c379a000000000000000000000000000000000000000000000000000000000815260040161093e906113fe565b60405180910390fd5b5f60015f8681526020019081526020015f2090508381600101908161096c9190611616565b508281600201908161097e9190611616565b50847fe4096bc6e8c2668091cd0c1de61ba8e24d613d9ec02be5b617b02b190868cbb085856040516109b1929190611791565b60405180910390a25050505050565b806109ca81610be2565b610a09576040517f08c379a0000000000000000000000000000000000000000000000000000000008152600401610a0090611810565b60405180910390fd5b3373ffffffffffffffffffffffffffffffffffffffff1660015f8381526020019081526020015f2060030160019054906101000a900473ffffffffffffffffffffffffffffffffffffffff1673ffffffffffffffffffffffffffffffffffffffff1614610aab576040517f08c379a0000000000000000000000000000000000000000000000000000000008152600401610aa29061189e565b60405180910390fd5b5f60015f8481526020019081526020015f209050806003015f9054906101000a900460ff1615610b10576040517f08c379a0000000000000000000000000000000000000000000000000000000008152600401610b0790611993565b60405180910390fd5b6001816003015f6101000a81548160ff021916908315150217905550827fc1fa7142cfb933d0855114a3bffde296944c30b727f297c14d0db4d553d3a5c760405160405180910390a2505050565b610b66610c4e565b5f73ffffffffffffffffffffffffffffffffffffffff168173ffffffffffffffffffffffffffffffffffffffff1603610bd6575f6040517f1e4fbdf7000000000000000000000000000000000000000000000000000000008152600401610bcd91906112ae565b60405180910390fd5b610bdf81610cd5565b50565b5f8073ffffffffffffffffffffffffffffffffffffffff1660015f8481526020019081526020015f2060030160019054906101000a900473ffffffffffffffffffffffffffffffffffffffff1673ffffffffffffffffffffffffffffffffffffffff1614159050919050565b610c56610d96565b73ffffffffffffffffffffffffffffffffffffffff16610c746107f2565b73ffffffffffffffffffffffffffffffffffffffff1614610cd357610c97610d96565b6040517f118cdaa7000000000000000000000000000000000000000000000000000000008152600401610cca91906112ae565b60405180910390fd5b565b5f805f9054906101000a900473ffffffffffffffffffffffffffffffffffffffff169050815f806101000a81548173ffffffffffffffffffffffffffffffffffffffff021916908373ffffffffffffffffffffffffffffffffffffffff1602179055508173ffffffffffffffffffffffffffffffffffffffff168173ffffffffffffffffffffffffffffffffffffffff167f8be0079c531659141344cd1fd0a4f28419497f9722a3daafe3b4186f6b6457e060405160405180910390a35050565b5f33905090565b508054610da990611449565b5f825580601f10610dba5750610dd7565b601f0160209004905f5260205f2090810190610dd69190610e1e565b5b50565b6040518060a001604052805f815260200160608152602001606081526020015f151581526020015f73ffffffffffffffffffffffffffffffffffffffff1681525090565b5b80821115610e35575f815f905550600101610e1f565b5090565b5f604051905090565b5f80fd5b5f80fd5b5f80fd5b5f80fd5b5f601f19601f8301169050919050565b7f4e487b71000000000000000000000000000000000000000000000000000000005f52604160045260245ffd5b610e9882610e52565b810181811067ffffffffffffffff82111715610eb757610eb6610e62565b5b80604052505050565b5f610ec9610e39565b9050610ed58282610e8f565b919050565b5f67ffffffffffffffff821115610ef457610ef3610e62565b5b610efd82610e52565b9050602081019050919050565b828183375f83830152505050565b5f610f2a610f2584610eda565b610ec0565b905082815260208101848484011115610f4657610f45610e4e565b5b610f51848285610f0a565b509392505050565b5f82601f830112610f6d57610f6c610e4a565b5b8135610f7d848260208601610f18565b91505092915050565b5f8060408385031215610f9c57610f9b610e42565b5b5f83013567ffffffffffffffff811115610fb957610fb8610e46565b5b610fc585828601610f59565b925050602083013567ffffffffffffffff811115610fe657610fe5610e46565b5b610ff285828601610f59565b9150509250929050565b5f819050919050565b61100e81610ffc565b82525050565b5f6020820190506110275f830184611005565b92915050565b61103681610ffc565b8114611040575f80fd5b50565b5f813590506110518161102d565b92915050565b5f6020828403121561106c5761106b610e42565b5b5f61107984828501611043565b91505092915050565b5f81519050919050565b5f82825260208201905092915050565b5f819050602082019050919050565b6110b481610ffc565b82525050565b5f81519050919050565b5f82825260208201905092915050565b8281835e5f83830152505050565b5f6110ec826110ba565b6110f681856110c4565b93506111068185602086016110d4565b61110f81610e52565b840191505092915050565b5f8115159050919050565b61112e8161111a565b82525050565b5f73ffffffffffffffffffffffffffffffffffffffff82169050919050565b5f61115d82611134565b9050919050565b61116d81611153565b82525050565b5f60a083015f8301516111885f8601826110ab565b50602083015184820360208601526111a082826110e2565b915050604083015184820360408601526111ba82826110e2565b91505060608301516111cf6060860182611125565b5060808301516111e26080860182611164565b508091505092915050565b5f6111f88383611173565b905092915050565b5f602082019050919050565b5f61121682611082565b611220818561108c565b9350836020820285016112328561109c565b805f5b8581101561126d578484038952815161124e85826111ed565b945061125983611200565b925060208a01995050600181019050611235565b50829750879550505050505092915050565b5f6020820190508181035f830152611297818461120c565b905092915050565b6112a881611153565b82525050565b5f6020820190506112c15f83018461129f565b92915050565b5f805f606084860312156112de576112dd610e42565b5b5f6112eb86828701611043565b935050602084013567ffffffffffffffff81111561130c5761130b610e46565b5b61131886828701610f59565b925050604084013567ffffffffffffffff81111561133957611338610e46565b5b61134586828701610f59565b9150509250925092565b61135881611153565b8114611362575f80fd5b50565b5f813590506113738161134f565b92915050565b5f6020828403121561138e5761138d610e42565b5b5f61139b84828501611365565b91505092915050565b5f82825260208201905092915050565b7f5469746c652063616e6e6f7420626520656d70747900000000000000000000005f82015250565b5f6113e86015836113a4565b91506113f3826113b4565b602082019050919050565b5f6020820190508181035f830152611415816113dc565b9050919050565b7f4e487b71000000000000000000000000000000000000000000000000000000005f52602260045260245ffd5b5f600282049050600182168061146057607f821691505b6020821081036114735761147261141c565b5b50919050565b5f819050815f5260205f209050919050565b5f6020601f8301049050919050565b5f82821b905092915050565b5f600883026114d57fffffffffffffffffffffffffffffffffffffffffffffffffffffffffffffffff8261149a565b6114df868361149a565b95508019841693508086168417925050509392505050565b5f819050919050565b5f61151a61151561151084610ffc565b6114f7565b610ffc565b9050919050565b5f819050919050565b61153383611500565b61154761153f82611521565b8484546114a6565b825550505050565b5f90565b61155b61154f565b61156681848461152a565b505050565b5b818110156115895761157e5f82611553565b60018101905061156c565b5050565b601f8211156115ce5761159f81611479565b6115a88461148b565b810160208510156115b7578190505b6115cb6115c38561148b565b83018261156b565b50505b505050565b5f82821c905092915050565b5f6115ee5f19846008026115d3565b1980831691505092915050565b5f61160683836115df565b9150826002028217905092915050565b61161f826110ba565b67ffffffffffffffff81111561163857611637610e62565b5b6116428254611449565b61164d82828561158d565b5f60209050601f83116001811461167e575f841561166c578287015190505b61167685826115fb565b8655506116dd565b601f19841661168c86611479565b5f5b828110156116b35784890151825560018201915060208501945060208101905061168e565b868310156116d057848901516116cc601f8916826115df565b8355505b6001600288020188555050505b505050505050565b7f4e487b71000000000000000000000000000000000000000000000000000000005f52601160045260245ffd5b5f61171c82610ffc565b91507fffffffffffffffffffffffffffffffffffffffffffffffffffffffffffffffff820361174e5761174d6116e5565b5b600182019050919050565b5f611763826110ba565b61176d81856113a4565b935061177d8185602086016110d4565b61178681610e52565b840191505092915050565b5f6040820190508181035f8301526117a98185611759565b905081810360208301526117bd8184611759565b90509392505050565b7f5461736b20646f6573206e6f74206578697374000000000000000000000000005f82015250565b5f6117fa6013836113a4565b9150611805826117c6565b602082019050919050565b5f6020820190508181035f830152611827816117ee565b9050919050565b7f4f6e6c7920746865207461736b206f776e65722063616e20706572666f726d205f8201527f7468697320616374696f6e000000000000000000000000000000000000000000602082015250565b5f611888602b836113a4565b91506118938261182e565b604082019050919050565b5f6020820190508181035f8301526118b58161187c565b9050919050565b7f4e487b71000000000000000000000000000000000000000000000000000000005f52603260045260245ffd5b5f6118f382610ffc565b91506118fe83610ffc565b9250828203905081811115611916576119156116e5565b5b92915050565b7f4e487b71000000000000000000000000000000000000000000000000000000005f52603160045260245ffd5b7f5461736b20697320616c726561647920636f6d706c65746564000000000000005f82015250565b5f61197d6019836113a4565b915061198882611949565b602082019050919050565b5f6020820190508181035f8301526119aa81611971565b905091905056fea2646970667358221220e29f8f8f5a14382a1f02a4f4b30891a198426a3ada68af3f3be8aa636f85e22e64736f6c634300081a0033",
    "linkReferences": {}
  },
  "methodIdentifiers": {
    "completeTask(uint256)": "e1e29558",
    "createTask(string,string)": "292a4585",
    "deleteTask(uint256)": "560f3192",
    "getAllTasks()": "779900b4",
    "owner()": "8da5cb5b",
    "renounceOwnership()": "715018a6",
    "transferOwnership(address)": "f2fde38b",
    "updateTask(uint256,string,string)": "c72ef41f"
  },
  "id": 0
}